:100000000C9434000C9446000C9446000C9446006A
:100010000C9446000C9446000C9446000C94460048
:100020000C9446000C9446000C9446000C94460038
:100030000C9446000C9446000C9446000C94460028
:100040000C9446000C9446000C9446000C94460018
:100050000C9446000C9446000C9446000C94460008
:100060000C9446000C94460011241FBECFEFD8E03C
:10007000DEBFCDBF21E0A0E0B1E001C01D92A13004
:10008000B207E1F70E9456000C9466000C94000041
:10009000249A8CB580648CBD8CB580688CBD299AFF
:1000A00008950DB407FEFDCF8EB508950E94480057
:1000B000209A219A0E9451008093000180910001B2
:1000C000813011F4289AF6CF2898F4CFF894FFCF16
:00000001FF
