:100000000C9434000C9446000C9446000C9446006A
:100010000C9446000C9446000C9446000C94460048
:100020000C9446000C9446000C9446000C94460038
:100030000C9446000C9446000C9446000C94460028
:100040000C9446000C9450000C9446000C9446000E
:100050000C9446000C9446000C9446000C94460008
:100060000C9446000C94460011241FBECFEFD8E03C
:10007000DEBFCDBF21E0A0E0B1E001C01D92A23003
:10008000B207E1F70E9468000C9477000C9400001E
:10009000249A8CB580648CBD8CB580688CBD089525
:1000A0001F920F920FB60F9211248F939F938EB5CC
:1000B00090E0909301018093000185B192E089273F
:1000C00085B99F918F910F900FBE0F901F9018953B
:1000D0000E9448007894209A219A80910001909182
:1000E0000101019711F4289AF8CF2898F6CFF894D7
:0200F000FFCF40
:00000001FF
