:100000000C9434000C9446000C9446000C9446006A
:100010000C9446000C9446000C9446000C94460048
:100020000C9446000C9446000C9446000C94460038
:100030000C9446000C9446000C9446000C94460028
:100040000C9446000C9446000C9446000C94460018
:100050000C9446000C9446000C9446000C94460008
:100060000C9446000C94460011241FBECFEFD8E03C
:10007000DEBFCDBF21E0A0E0B1E001C01D92A13004
:10008000B207E1F70E9452000C9466000C94000045
:10009000249A8CB580648CBD08950DB407FEFDCF05
:1000A0008EB508950E944800209A219AC2E00E94CD
:1000B0004D008093000180910001813011F4289A55
:1000C000F6CF289885B18C2785B9F1CFF894FFCF6A
:00000001FF
