:100000000C9434000C943E000C943E000C943E0082
:100010000C943E000C943E000C943E000C943E0068
:100020000C943E000C943E000C943E000C943E0058
:100030000C943E000C943E000C943E000C943E0048
:100040000C943E000C943E000C943E000C943E0038
:100050000C943E000C943E000C943E000C943E0028
:100060000C943E000C943E0011241FBECFEFD8E04C
:10007000DEBFCDBF0E9445000C944F000C940000E1
:100080000DB407FEFDCF8EB50895209A80E490E070
:100090008130910511F4289AFBCF2898F9CFF89474
:0200A000FFCF90
:00000001FF
