:100000000C9434000C9446000C9446000C9446006A
:100010000C9446000C9446000C9446000C94460048
:100020000C9446000C9446000C9446000C94460038
:100030000C9446000C9446000C9446000C94460028
:100040000C9446000C9446000C9446000C94460018
:100050000C9446000C9446000C9446000C94460008
:100060000C9446000C94460011241FBECFEFD8E03C
:10007000DEBFCDBF21E0A0E0B1E001C01D92A13004
:10008000B207E1F70E9456000C9466000C94000041
:100090000DB407FEFDCF8EB50895249A8CB580640B
:1000A0008CBD8CB580688CBD299A08950E944D0046
:1000B000209A219A88E490E0809300012091000129
:1000C000213011F4289AF8CF2898F6CFF894FFCF72
:00000001FF
