:100000000C9434000C9446000C9446000C9446006A
:100010000C9446000C9446000C9446000C94460048
:100020000C9446000C9446000C9446000C94460038
:100030000C9446000C9446000C9446000C94460028
:100040000C9446000C9446000C9446000C94460018
:100050000C9446000C9446000C9446000C94460008
:100060000C9446000C94460011241FBECFEFD8E03C
:10007000DEBFCDBF21E0A0E0B1E001C01D92A13004
:10008000B207E1F70E9454000C9463000C94000046
:10009000249A8CB580648CBD089580E18EBD0DB42A
:1000A00007FEFDCF8EB508950E944800209A0E9459
:1000B0004D008093000180910001813011F4289A55
:0A00C000F6CF2898F4CFF894FFCF94
:00000001FF
