:100000000C9434000C9446000C9446000C9446006A
:100010000C9446000C9446000C9446000C94460048
:100020000C9446000C9446000C9446000C94460038
:100030000C9446000C9446000C9446000C94460028
:100040000C9446000C946B000C9446000C944600F3
:100050000C9446000C9446000C9446000C94460008
:100060000C9446000C94460011241FBECFEFD8E03C
:10007000DEBFCDBF21E0A0E0B1E001C01D92A33002
:10008000B207E1F70E9451000C9482000C9400002A
:10009000249A8CB580648CBD8CB580688CBD7894B6
:1000A00008950E944800209A90E080E0209100018D
:1000B000222341F0F89480910201909101017894FB
:1000C000109200018F3F19F4289A9EBDEFCF8E3F0A
:1000D000E1F72898FACF1F920F920FB60F921124D2
:1000E0008F938EB587FF0BC08093020181E08093D0
:1000F00000018F910F900FBE0F901F901895809365
:080100000101F4CFF894FFCFD8
:00000001FF
