:100000000C9434000C9446000C9446000C9446006A
:100010000C9446000C9446000C9446000C94460048
:100020000C9446000C9446000C9446000C94460038
:100030000C9446000C9446000C9446000C94460028
:100040000C9446000C946C000C9446000C944600F2
:100050000C9446000C9446000C9446000C94460008
:100060000C9446000C94460011241FBECFEFD8E03C
:10007000DEBFCDBF21E0A0E0B1E001C01D92A33002
:10008000B207E1F70E9451000C9483000C94000029
:10009000249A8CB580648CBD8CB580688CBD7894B6
:1000A00008950E944800209A80E092E1209100018A
:1000B000222331F0F894809102017894109200018B
:1000C0008F3F19F4289A8EBDF1CF8E3F19F42898EE
:1000D0009EBDECCF1EBCEACF1F920F920FB60F92BF
:1000E00011248F938EB587FF0BC08093020181E0AE
:1000F000809300018F910F900FBE0F901F90189565
:0A01000080930101F4CFF894FFCFC3
:00000001FF
