:100000000C9434000C9446000C9446000C9446006A
:100010000C9446000C9446000C9446000C94460048
:100020000C9446000C9446000C9446000C94460038
:100030000C9446000C9446000C9446000C94460028
:100040000C9446000C946F000C9446000C944600EF
:100050000C9446000C9446000C9446000C94460008
:100060000C9446000C94460011241FBECFEFD8E03C
:10007000DEBFCDBF21E0A0E0B1E001C01D92A43001
:10008000B207E1F70E9451000C948F000C9400001D
:10009000249A8CB580648CBD8CB580688CBD7894B6
:1000A00008950E944800209A80E090E0209101018C
:1000B000222341F0F89490910301809102017894F9
:1000C000109201019F3F29F48F3F29F4289A80E084
:1000D00090E08EBDEBCF8130E1F72898F8CF1F92EA
:1000E0000F920FB60F9211248F939F938EB590911C
:1000F000000191110FC08093030181E08093000102
:1001000081E0809301019F918F910F900FBE0F901E
:100110001F9018958093020110920001F1CFF8947E
:02012000FFCF0F
:00000001FF
