:100000000C9434000C9446000C9446000C9446006A
:100010000C9446000C9446000C9446000C94460048
:100020000C9446000C9446000C9446000C94460038
:100030000C9446000C9446000C9446000C94460028
:100040000C9446000C9446000C9446000C94460018
:100050000C9446000C9446000C9446000C94460008
:100060000C9446000C94460011241FBECFEFD8E03C
:10007000DEBFCDBF21E0A0E0B1E001C01D92A13004
:10008000B207E1F70E9453000C9469000C94000041
:10009000249A8CB580648CBD08958EBD0DB407FE86
:1000A000FDCF8EB508950E944800209A289A84E3D7
:1000B00090E00E944D008093000180910001803803
:1000C00021F4289A8FEF90E0F4CF289882E190E015
:0600D000F0CFF894FFCF11
:00000001FF
