:100000000C9434000C9446000C9446000C9446006A
:100010000C9446000C9446000C9446000C94460048
:100020000C9446000C9446000C9446000C94460038
:100030000C9446000C9446000C9446000C94460028
:100040000C9446000C9489000C9446000C944600D5
:100050000C9446000C9446000C9446000C94460008
:100060000C9446000C94460011241FBECFEFD8E03C
:10007000DEBFCDBF21E0A0E0B1E001C01D92A53000
:10008000B207E1F70E9458000C94A5000C94000000
:10009000249A8CB580648CBD8CB580688CBD7894B6
:1000A0000895569A559A83EA84BD83E085BD0895E4
:1000B0000E9448000E945100209A549A579A90E05A
:1000C00080E024EE31E244E350910001552341F0F9
:1000D000F8948091040190910301789410920001AA
:1000E0008F3F49F49F3769F4289A30930201409377
:1000F000010190E080E0582F507C503829F787BDEF
:10010000E3CF9130C1F72898809302012093010139
:10011000F0CF1F920F920FB60F9211248F938EB5CE
:1001200087FF0EC080930401809102018EBD81E0A3
:10013000809300018F910F900FBE0F901F90189524
:0E0140008093030180910101F1CFF894FFCF6D
:00000001FF
