:100000000C9434000C9446000C9446000C9446006A
:100010000C9446000C9446000C9446000C94460048
:100020000C9446000C9446000C9446000C94460038
:100030000C9446000C9446000C9446000C94460028
:100040000C9446000C9467000C9446000C944600F7
:100050000C9446000C9446000C9446000C94460008
:100060000C9446000C94460011241FBECFEFD8E03C
:10007000DEBFCDBF21E0A0E0B1E001C01D92A23003
:10008000B207E1F70E9451000C9479000C94000033
:10009000249A8CB580648CBD8CB580688CBD7894B6
:1000A00008950E944800209A80E092E12FEF30915D
:1000B0000001332321F0F89480910101789481307C
:1000C00019F4289A2EBDF3CF28989EBDF0CF1F9229
:1000D0000F920FB60F9211248F938EB5809301016A
:1000E00081E0809300018F910F900FBE0F901F90C1
:0600F0001895F894FFCF03
:00000001FF
