:100000000C9434000C9446000C9446000C9446006A
:100010000C9446000C9446000C9446000C94460048
:100020000C9446000C9446000C9446000C94460038
:100030000C9446000C9446000C9446000C94460028
:100040000C9446000C946B000C9446000C944600F3
:100050000C9446000C9446000C9446000C94460008
:100060000C9446000C94460011241FBECFEFD8E03C
:10007000DEBFCDBF21E0A0E0B1E001C01D92A43001
:10008000B207E1F70E9451000C948B000C94000021
:10009000249A8CB580648CBD8CB580688CBD7894B6
:1000A00008950E944800209A90E080E0209101018C
:1000B000222341F0F89480910301909102017894F9
:1000C000109201018F3F19F4289A9EBDEFCF8E3F09
:1000D000E1F72898FACF1F920F920FB60F921124D2
:1000E0008F939F938EB59091000191110FC08093D3
:1000F000030181E08093000181E0809301019F91E1
:100100008F910F900FBE0F901F9018958093020152
:0A01100010920001F1CFF894FFCF28
:00000001FF
