:100000000C9434000C9446000C9446000C9446006A
:100010000C9446000C9446000C9446000C94460048
:100020000C9446000C9446000C9446000C94460038
:100030000C9446000C9446000C9446000C94460028
:100040000C9446000C947A000C9446000C944600E4
:100050000C9446000C9446000C9446000C94460008
:100060000C9446000C94460011241FBECFEFD8E03C
:10007000DEBFCDBF21E0A0E0B1E001C01D92A630FF
:10008000B207E1F70E9451000C949F000C9400000D
:10009000249A8CB580648CBD8CB580688CBD7894B6
:1000A00008950E944800209A80E090E024EE31E21A
:1000B00044E350910101552341F0F89490910501DA
:1000C000809104017894109201019F3F49F48F3F81
:1000D00049F4289A309303014093020180E090E0B4
:1000E0008EBDE7CF8130E1F72898909303012093EC
:1000F0000201F4CF1F920F920FB60F9211248F932B
:100100009F938EB590910001911112C080930501CB
:1001100081E080930001809103018EBD81E0809396
:1001200001019F918F910F900FBE0F901F90189516
:10013000809304011092000180910201EECFF894A7
:02014000FFCFEF
:00000001FF
