:100000000C9434000C9446000C9446000C9446006A
:100010000C9446000C9446000C9446000C94460048
:100020000C9446000C9446000C9446000C94460038
:100030000C9446000C9446000C9446000C94460028
:100040000C9446000C948D000C9446000C944600D1
:100050000C9446000C9446000C9446000C94460008
:100060000C9446000C94460011241FBECFEFD8E03C
:10007000DEBFCDBF21E0A0E0B1E001C01D92A53000
:10008000B207E1F70E945C000C94A9000C940000F8
:10009000249A8CB580648CBD8CB580688CBD7894B6
:1000A0000895569A559A83EA84BD83E085BD84E617
:1000B00087BD82E388BD08950E9448000E945100D8
:1000C000209A549A579A80E090E024EE31E244E37B
:1000D00050910001552341F0F894909104018091D2
:1000E00003017894109200019F3F49F48F3769F41F
:1000F000289A309302014093010180E090E0592F4B
:10010000507C503C29F787BDE3CF8130C1F7289858
:100110009093020120930101F0CF1F920F920FB62E
:100120000F9211248F938EB587FF0EC08093040128
:10013000809102018EBD81E0809300018F910F902C
:100140000FBE0F901F9018958093030180910101BD
:06015000F1CFF894FFCF8F
:00000001FF
